{
  "_format": "hh-sol-artifact-1",
  "contractName": "EncountersFactory",
  "sourceName": "contracts/EncountersFactory.sol",
  "abi": [
    {
      "inputs": [
        {
          "internalType": "address",
          "name": "_tokenManagerAddress",
          "type": "address"
        },
        {
          "internalType": "address",
          "name": "_myTokenAddress",
          "type": "address"
        }
      ],
      "stateMutability": "nonpayable",
      "type": "constructor"
    },
    {
      "inputs": [
        {
          "internalType": "uint256",
          "name": "",
          "type": "uint256"
        }
      ],
      "name": "collections",
      "outputs": [
        {
          "internalType": "address",
          "name": "",
          "type": "address"
        }
      ],
      "stateMutability": "view",
      "type": "function"
    },
    {
      "inputs": [
        {
          "internalType": "uint256",
          "name": "myTokenId",
          "type": "uint256"
        },
        {
          "internalType": "string",
          "name": "name",
          "type": "string"
        },
        {
          "internalType": "string",
          "name": "symbol",
          "type": "string"
        }
      ],
      "name": "createCollection",
      "outputs": [],
      "stateMutability": "nonpayable",
      "type": "function"
    },
    {
      "inputs": [
        {
          "internalType": "uint256",
          "name": "myTokenId",
          "type": "uint256"
        }
      ],
      "name": "getCollection",
      "outputs": [
        {
          "internalType": "address",
          "name": "",
          "type": "address"
        }
      ],
      "stateMutability": "view",
      "type": "function"
    },
    {
      "inputs": [],
      "name": "myTokenContract",
      "outputs": [
        {
          "internalType": "contract MyToken",
          "name": "",
          "type": "address"
        }
      ],
      "stateMutability": "view",
      "type": "function"
    },
    {
      "inputs": [],
      "name": "tokenManagerAddress",
      "outputs": [
        {
          "internalType": "address",
          "name": "",
          "type": "address"
        }
      ],
      "stateMutability": "view",
      "type": "function"
    }
  ],
  "bytecode": "0x608060405234801561001057600080fd5b506040516142273803806142278339818101604052810190610032919061011e565b81600160006101000a81548173ffffffffffffffffffffffffffffffffffffffff021916908373ffffffffffffffffffffffffffffffffffffffff16021790555080600260006101000a81548173ffffffffffffffffffffffffffffffffffffffff021916908373ffffffffffffffffffffffffffffffffffffffff160217905550505061015e565b600080fd5b600073ffffffffffffffffffffffffffffffffffffffff82169050919050565b60006100eb826100c0565b9050919050565b6100fb816100e0565b811461010657600080fd5b50565b600081519050610118816100f2565b92915050565b60008060408385031215610135576101346100bb565b5b600061014385828601610109565b925050602061015485828601610109565b9150509250929050565b6140ba8061016d6000396000f3fe608060405234801561001057600080fd5b50600436106100575760003560e01c806327f9904a1461005c5780635a1f3c2814610078578063bb134cfb146100a8578063bc4c594b146100c6578063fdbda0ec146100e4575b600080fd5b610076600480360381019061007191906106d8565b610114565b005b610092600480360381019061008d9190610763565b610480565b60405161009f91906107d1565b60405180910390f35b6100b06104bc565b6040516100bd919061084b565b60405180910390f35b6100ce6104e2565b6040516100db91906107d1565b60405180910390f35b6100fe60048036038101906100f99190610763565b610508565b60405161010b91906107d1565b60405180910390f35b823373ffffffffffffffffffffffffffffffffffffffff16600260009054906101000a900473ffffffffffffffffffffffffffffffffffffffff1673ffffffffffffffffffffffffffffffffffffffff16636352211e836040518263ffffffff1660e01b81526004016101879190610875565b602060405180830381865afa1580156101a4573d6000803e3d6000fd5b505050506040513d601f19601f820116820180604052508101906101c891906108bc565b73ffffffffffffffffffffffffffffffffffffffff161461021e576040517f08c379a000000000000000000000000000000000000000000000000000000000815260040161021590610946565b60405180910390fd5b600073ffffffffffffffffffffffffffffffffffffffff1660008086815260200190815260200160002060009054906101000a900473ffffffffffffffffffffffffffffffffffffffff1673ffffffffffffffffffffffffffffffffffffffff16146102bf576040517f08c379a00000000000000000000000000000000000000000000000000000000081526004016102b6906109b2565b60405180910390fd5b3373ffffffffffffffffffffffffffffffffffffffff16600260009054906101000a900473ffffffffffffffffffffffffffffffffffffffff1673ffffffffffffffffffffffffffffffffffffffff16636352211e866040518263ffffffff1660e01b81526004016103319190610875565b602060405180830381865afa15801561034e573d6000803e3d6000fd5b505050506040513d601f19601f8201168201806040525081019061037291906108bc565b73ffffffffffffffffffffffffffffffffffffffff16146103c8576040517f08c379a00000000000000000000000000000000000000000000000000000000081526004016103bf90610a1e565b60405180910390fd5b6000838333600160009054906101000a900473ffffffffffffffffffffffffffffffffffffffff166040516103fc9061053b565b6104099493929190610aac565b604051809103906000f080158015610425573d6000803e3d6000fd5b5090508060008087815260200190815260200160002060006101000a81548173ffffffffffffffffffffffffffffffffffffffff021916908373ffffffffffffffffffffffffffffffffffffffff1602179055505050505050565b600080600083815260200190815260200160002060009054906101000a900473ffffffffffffffffffffffffffffffffffffffff169050919050565b600260009054906101000a900473ffffffffffffffffffffffffffffffffffffffff1681565b600160009054906101000a900473ffffffffffffffffffffffffffffffffffffffff1681565b60006020528060005260406000206000915054906101000a900473ffffffffffffffffffffffffffffffffffffffff1681565b61358580610b0083390190565b6000604051905090565b600080fd5b600080fd5b6000819050919050565b61056f8161055c565b811461057a57600080fd5b50565b60008135905061058c81610566565b92915050565b600080fd5b600080fd5b6000601f19601f8301169050919050565b7f4e487b7100000000000000000000000000000000000000000000000000000000600052604160045260246000fd5b6105e58261059c565b810181811067ffffffffffffffff82111715610604576106036105ad565b5b80604052505050565b6000610617610548565b905061062382826105dc565b919050565b600067ffffffffffffffff821115610643576106426105ad565b5b61064c8261059c565b9050602081019050919050565b82818337600083830152505050565b600061067b61067684610628565b61060d565b90508281526020810184848401111561069757610696610597565b5b6106a2848285610659565b509392505050565b600082601f8301126106bf576106be610592565b5b81356106cf848260208601610668565b91505092915050565b6000806000606084860312156106f1576106f0610552565b5b60006106ff8682870161057d565b935050602084013567ffffffffffffffff8111156107205761071f610557565b5b61072c868287016106aa565b925050604084013567ffffffffffffffff81111561074d5761074c610557565b5b610759868287016106aa565b9150509250925092565b60006020828403121561077957610778610552565b5b60006107878482850161057d565b91505092915050565b600073ffffffffffffffffffffffffffffffffffffffff82169050919050565b60006107bb82610790565b9050919050565b6107cb816107b0565b82525050565b60006020820190506107e660008301846107c2565b92915050565b6000819050919050565b600061081161080c61080784610790565b6107ec565b610790565b9050919050565b6000610823826107f6565b9050919050565b600061083582610818565b9050919050565b6108458161082a565b82525050565b6000602082019050610860600083018461083c565b92915050565b61086f8161055c565b82525050565b600060208201905061088a6000830184610866565b92915050565b610899816107b0565b81146108a457600080fd5b50565b6000815190506108b681610890565b92915050565b6000602082840312156108d2576108d1610552565b5b60006108e0848285016108a7565b91505092915050565b600082825260208201905092915050565b7f4e6f7420746865206f776e6572206f6620746865204d79546f6b656e00000000600082015250565b6000610930601c836108e9565b915061093b826108fa565b602082019050919050565b6000602082019050818103600083015261095f81610923565b9050919050565b7f436f6c6c656374696f6e20616c72656164792065786973747300000000000000600082015250565b600061099c6019836108e9565b91506109a782610966565b602082019050919050565b600060208201905081810360008301526109cb8161098f565b9050919050565b7f4e6f7420746865206f776e6572206f66204d79546f6b656e0000000000000000600082015250565b6000610a086018836108e9565b9150610a13826109d2565b602082019050919050565b60006020820190508181036000830152610a37816109fb565b9050919050565b600081519050919050565b60005b83811015610a67578082015181840152602081019050610a4c565b60008484015250505050565b6000610a7e82610a3e565b610a8881856108e9565b9350610a98818560208601610a49565b610aa18161059c565b840191505092915050565b60006080820190508181036000830152610ac68187610a73565b90508181036020830152610ada8186610a73565b9050610ae960408301856107c2565b610af660608301846107c2565b9594505050505056fe608060405234801561001057600080fd5b50604051613585380380613585833981810160405281019061003291906102bc565b83838160009081610043919061057c565b508060019081610053919061057c565b5050506000600b8190555081600c60006101000a81548173ffffffffffffffffffffffffffffffffffffffff021916908373ffffffffffffffffffffffffffffffffffffffff16021790555080600d60006101000a81548173ffffffffffffffffffffffffffffffffffffffff021916908373ffffffffffffffffffffffffffffffffffffffff1602179055505050505061064e565b6000604051905090565b600080fd5b600080fd5b600080fd5b600080fd5b6000601f19601f8301169050919050565b7f4e487b7100000000000000000000000000000000000000000000000000000000600052604160045260246000fd5b61015082610107565b810181811067ffffffffffffffff8211171561016f5761016e610118565b5b80604052505050565b60006101826100e9565b905061018e8282610147565b919050565b600067ffffffffffffffff8211156101ae576101ad610118565b5b6101b782610107565b9050602081019050919050565b60005b838110156101e25780820151818401526020810190506101c7565b60008484015250505050565b60006102016101fc84610193565b610178565b90508281526020810184848401111561021d5761021c610102565b5b6102288482856101c4565b509392505050565b600082601f830112610245576102446100fd565b5b81516102558482602086016101ee565b91505092915050565b600073ffffffffffffffffffffffffffffffffffffffff82169050919050565b60006102898261025e565b9050919050565b6102998161027e565b81146102a457600080fd5b50565b6000815190506102b681610290565b92915050565b600080600080608085870312156102d6576102d56100f3565b5b600085015167ffffffffffffffff8111156102f4576102f36100f8565b5b61030087828801610230565b945050602085015167ffffffffffffffff811115610321576103206100f8565b5b61032d87828801610230565b935050604061033e878288016102a7565b925050606061034f878288016102a7565b91505092959194509250565b600081519050919050565b7f4e487b7100000000000000000000000000000000000000000000000000000000600052602260045260246000fd5b600060028204905060018216806103ad57607f821691505b6020821081036103c0576103bf610366565b5b50919050565b60008190508160005260206000209050919050565b60006020601f8301049050919050565b600082821b905092915050565b6000600883026104287fffffffffffffffffffffffffffffffffffffffffffffffffffffffffffffffff826103eb565b61043286836103eb565b95508019841693508086168417925050509392505050565b6000819050919050565b6000819050919050565b600061047961047461046f8461044a565b610454565b61044a565b9050919050565b6000819050919050565b6104938361045e565b6104a761049f82610480565b8484546103f8565b825550505050565b600090565b6104bc6104af565b6104c781848461048a565b505050565b5b818110156104eb576104e06000826104b4565b6001810190506104cd565b5050565b601f82111561053057610501816103c6565b61050a846103db565b81016020851015610519578190505b61052d610525856103db565b8301826104cc565b50505b505050565b600082821c905092915050565b600061055360001984600802610535565b1980831691505092915050565b600061056c8383610542565b9150826002028217905092915050565b6105858261035b565b67ffffffffffffffff81111561059e5761059d610118565b5b6105a88254610395565b6105b38282856104ef565b600060209050601f8311600181146105e657600084156105d4578287015190505b6105de8582610560565b865550610646565b601f1984166105f4866103c6565b60005b8281101561061c578489015182556001820191506020850194506020810190506105f7565b868310156106395784890151610635601f891682610542565b8355505b6001600288020188555050505b505050505050565b612f288061065d6000396000f3fe608060405234801561001057600080fd5b506004361061012c5760003560e01c806354c64e37116100ad578063a22cb46511610071578063a22cb4651461036b578063b88d4fde14610387578063c87b56dd146103a3578063d082e381146103d3578063e985e9c5146103f15761012c565b806354c64e371461029f5780636352211e146102cf57806370a08231146102ff5780638da5cb5b1461032f57806395d89b411461034d5761012c565b806323b872dd116100f457806323b872dd146101e95780632a709b14146102055780632f745c591461022357806342842e0e146102535780634f6ccce71461026f5761012c565b806301ffc9a71461013157806306fdde0314610161578063081812fc1461017f578063095ea7b3146101af57806318160ddd146101cb575b600080fd5b61014b60048036038101906101469190612105565b610421565b604051610158919061214d565b60405180910390f35b610169610433565b60405161017691906121f8565b60405180910390f35b61019960048036038101906101949190612250565b6104c5565b6040516101a691906122be565b60405180910390f35b6101c960048036038101906101c49190612305565b6104e1565b005b6101d36104f7565b6040516101e09190612354565b60405180910390f35b61020360048036038101906101fe919061236f565b610504565b005b61020d610606565b60405161021a9190612421565b60405180910390f35b61023d60048036038101906102389190612305565b61062c565b60405161024a9190612354565b60405180910390f35b61026d6004803603810190610268919061236f565b6106d5565b005b61028960048036038101906102849190612250565b6106f5565b6040516102969190612354565b60405180910390f35b6102b960048036038101906102b491906125a7565b61076b565b6040516102c69190612354565b60405180910390f35b6102e960048036038101906102e49190612250565b6108dd565b6040516102f691906122be565b60405180910390f35b61031960048036038101906103149190612616565b6108ef565b6040516103269190612354565b60405180910390f35b6103376109a9565b60405161034491906122be565b60405180910390f35b6103556109cf565b60405161036291906121f8565b60405180910390f35b6103856004803603810190610380919061266f565b610a61565b005b6103a1600480360381019061039c9190612750565b610a77565b005b6103bd60048036038101906103b89190612250565b610a9c565b6040516103ca91906121f8565b60405180910390f35b6103db610aae565b6040516103e89190612354565b60405180910390f35b61040b600480360381019061040691906127d3565b610ab4565b604051610418919061214d565b60405180910390f35b600061042c82610b48565b9050919050565b60606000805461044290612842565b80601f016020809104026020016040519081016040528092919081815260200182805461046e90612842565b80156104bb5780601f10610490576101008083540402835291602001916104bb565b820191906000526020600020905b81548152906001019060200180831161049e57829003601f168201915b5050505050905090565b60006104d082610bc2565b506104da82610c4a565b9050919050565b6104f382826104ee610c87565b610c8f565b5050565b6000600980549050905090565b600073ffffffffffffffffffffffffffffffffffffffff168273ffffffffffffffffffffffffffffffffffffffff16036105765760006040517f64a0ae9200000000000000000000000000000000000000000000000000000000815260040161056d91906122be565b60405180910390fd5b600061058a8383610585610c87565b610ca1565b90508373ffffffffffffffffffffffffffffffffffffffff168173ffffffffffffffffffffffffffffffffffffffff1614610600578382826040517f64283d7b0000000000000000000000000000000000000000000000000000000081526004016105f793929190612873565b60405180910390fd5b50505050565b600d60009054906101000a900473ffffffffffffffffffffffffffffffffffffffff1681565b6000610637836108ef565b821061067c5782826040517fa57d13dc0000000000000000000000000000000000000000000000000000000081526004016106739291906128aa565b60405180910390fd5b600760008473ffffffffffffffffffffffffffffffffffffffff1673ffffffffffffffffffffffffffffffffffffffff168152602001908152602001600020600083815260200190815260200160002054905092915050565b6106f083838360405180602001604052806000815250610a77565b505050565b60006106ff6104f7565b8210610745576000826040517fa57d13dc00000000000000000000000000000000000000000000000000000000815260040161073c9291906128aa565b60405180910390fd5b60098281548110610759576107586128d3565b5b90600052602060002001549050919050565b600080600d60009054906101000a900473ffffffffffffffffffffffffffffffffffffffff1673ffffffffffffffffffffffffffffffffffffffff1663be8dda7a846040518263ffffffff1660e01b81526004016107c99190612911565b602060405180830381865afa1580156107e6573d6000803e3d6000fd5b505050506040513d601f19601f8201168201806040525081019061080a9190612941565b9050600c60009054906101000a900473ffffffffffffffffffffffffffffffffffffffff1673ffffffffffffffffffffffffffffffffffffffff168173ffffffffffffffffffffffffffffffffffffffff161461089c576040517f08c379a0000000000000000000000000000000000000000000000000000000008152600401610893906129ba565b60405180910390fd5b6000600b5490506108ad8682610d33565b6108b78186610d51565b6001600b60008282546108ca9190612a09565b9250508190555080925050509392505050565b60006108e882610bc2565b9050919050565b60008073ffffffffffffffffffffffffffffffffffffffff168273ffffffffffffffffffffffffffffffffffffffff16036109625760006040517f89c62b6400000000000000000000000000000000000000000000000000000000815260040161095991906122be565b60405180910390fd5b600360008373ffffffffffffffffffffffffffffffffffffffff1673ffffffffffffffffffffffffffffffffffffffff168152602001908152602001600020549050919050565b600c60009054906101000a900473ffffffffffffffffffffffffffffffffffffffff1681565b6060600180546109de90612842565b80601f0160208091040260200160405190810160405280929190818152602001828054610a0a90612842565b8015610a575780601f10610a2c57610100808354040283529160200191610a57565b820191906000526020600020905b815481529060010190602001808311610a3a57829003601f168201915b5050505050905090565b610a73610a6c610c87565b8383610dad565b5050565b610a82848484610504565b610a96610a8d610c87565b85858585610f1c565b50505050565b6060610aa7826110cd565b9050919050565b600b5481565b6000600560008473ffffffffffffffffffffffffffffffffffffffff1673ffffffffffffffffffffffffffffffffffffffff16815260200190815260200160002060008373ffffffffffffffffffffffffffffffffffffffff1673ffffffffffffffffffffffffffffffffffffffff16815260200190815260200160002060009054906101000a900460ff16905092915050565b60007f780e9d63000000000000000000000000000000000000000000000000000000007bffffffffffffffffffffffffffffffffffffffffffffffffffffffff1916827bffffffffffffffffffffffffffffffffffffffffffffffffffffffff19161480610bbb5750610bba826111e0565b5b9050919050565b600080610bce83611241565b9050600073ffffffffffffffffffffffffffffffffffffffff168173ffffffffffffffffffffffffffffffffffffffff1603610c4157826040517f7e273289000000000000000000000000000000000000000000000000000000008152600401610c389190612354565b60405180910390fd5b80915050919050565b60006004600083815260200190815260200160002060009054906101000a900473ffffffffffffffffffffffffffffffffffffffff169050919050565b600033905090565b610c9c838383600161127e565b505050565b600080610cad84611241565b9050600073ffffffffffffffffffffffffffffffffffffffff168173ffffffffffffffffffffffffffffffffffffffff1614610d1e576040517f08c379a0000000000000000000000000000000000000000000000000000000008152600401610d1590612a89565b60405180910390fd5b610d29858585611443565b9150509392505050565b610d4d828260405180602001604052806000815250611560565b5050565b80600660008481526020019081526020016000209081610d719190612c4b565b507ff8e1a15aba9398e019f0b49df1a4fde98ee17ae345cb5f6b5e2c27f5033e8ce782604051610da19190612354565b60405180910390a15050565b600073ffffffffffffffffffffffffffffffffffffffff168273ffffffffffffffffffffffffffffffffffffffff1603610e1e57816040517f5b08ba18000000000000000000000000000000000000000000000000000000008152600401610e1591906122be565b60405180910390fd5b80600560008573ffffffffffffffffffffffffffffffffffffffff1673ffffffffffffffffffffffffffffffffffffffff16815260200190815260200160002060008473ffffffffffffffffffffffffffffffffffffffff1673ffffffffffffffffffffffffffffffffffffffff16815260200190815260200160002060006101000a81548160ff0219169083151502179055508173ffffffffffffffffffffffffffffffffffffffff168373ffffffffffffffffffffffffffffffffffffffff167f17307eab39ab6107e8899845ad3d59bd9653f200f220920489ca2b5937696c3183604051610f0f919061214d565b60405180910390a3505050565b60008373ffffffffffffffffffffffffffffffffffffffff163b11156110c6578273ffffffffffffffffffffffffffffffffffffffff1663150b7a02868685856040518563ffffffff1660e01b8152600401610f7b9493929190612d72565b6020604051808303816000875af1925050508015610fb757506040513d601f19601f82011682018060405250810190610fb49190612dd3565b60015b61103b573d8060008114610fe7576040519150601f19603f3d011682016040523d82523d6000602084013e610fec565b606091505b50600081510361103357836040517f64a0ae9200000000000000000000000000000000000000000000000000000000815260040161102a91906122be565b60405180910390fd5b805181602001fd5b63150b7a0260e01b7bffffffffffffffffffffffffffffffffffffffffffffffffffffffff1916817bffffffffffffffffffffffffffffffffffffffffffffffffffffffff1916146110c457836040517f64a0ae920000000000000000000000000000000000000000000000000000000081526004016110bb91906122be565b60405180910390fd5b505b5050505050565b60606110d882610bc2565b5060006006600084815260200190815260200160002080546110f990612842565b80601f016020809104026020016040519081016040528092919081815260200182805461112590612842565b80156111725780601f1061114757610100808354040283529160200191611172565b820191906000526020600020905b81548152906001019060200180831161115557829003601f168201915b505050505090506000611183611584565b905060008151036111985781925050506111db565b6000825111156111cd5780826040516020016111b5929190612e3c565b604051602081830303815290604052925050506111db565b6111d68461159b565b925050505b919050565b6000634906490660e01b7bffffffffffffffffffffffffffffffffffffffffffffffffffffffff1916827bffffffffffffffffffffffffffffffffffffffffffffffffffffffff1916148061123a575061123982611604565b5b9050919050565b60006002600083815260200190815260200160002060009054906101000a900473ffffffffffffffffffffffffffffffffffffffff169050919050565b80806112b75750600073ffffffffffffffffffffffffffffffffffffffff168273ffffffffffffffffffffffffffffffffffffffff1614155b156113eb5760006112c784610bc2565b9050600073ffffffffffffffffffffffffffffffffffffffff168373ffffffffffffffffffffffffffffffffffffffff161415801561133257508273ffffffffffffffffffffffffffffffffffffffff168173ffffffffffffffffffffffffffffffffffffffff1614155b801561134557506113438184610ab4565b155b1561138757826040517fa9fbf51f00000000000000000000000000000000000000000000000000000000815260040161137e91906122be565b60405180910390fd5b81156113e957838573ffffffffffffffffffffffffffffffffffffffff168273ffffffffffffffffffffffffffffffffffffffff167f8c5be1e5ebec7d5bd14f71427d1e84f3dd0314c0f7b2291e5b200ac8c7c3b92560405160405180910390a45b505b836004600085815260200190815260200160002060006101000a81548173ffffffffffffffffffffffffffffffffffffffff021916908373ffffffffffffffffffffffffffffffffffffffff16021790555050505050565b6000806114518585856116e6565b9050600073ffffffffffffffffffffffffffffffffffffffff168173ffffffffffffffffffffffffffffffffffffffff16036114955761149084611900565b6114d4565b8473ffffffffffffffffffffffffffffffffffffffff168173ffffffffffffffffffffffffffffffffffffffff16146114d3576114d28185611949565b5b5b600073ffffffffffffffffffffffffffffffffffffffff168573ffffffffffffffffffffffffffffffffffffffff16036115165761151184611a34565b611555565b8473ffffffffffffffffffffffffffffffffffffffff168173ffffffffffffffffffffffffffffffffffffffff1614611554576115538585611b05565b5b5b809150509392505050565b61156a8383611b90565b61157f611575610c87565b6000858585610f1c565b505050565b606060405180602001604052806000815250905090565b60606115a682610bc2565b5060006115b1611584565b905060008151116115d157604051806020016040528060008152506115fc565b806115db84611c89565b6040516020016115ec929190612e3c565b6040516020818303038152906040525b915050919050565b60007f80ac58cd000000000000000000000000000000000000000000000000000000007bffffffffffffffffffffffffffffffffffffffffffffffffffffffff1916827bffffffffffffffffffffffffffffffffffffffffffffffffffffffff191614806116cf57507f5b5e139f000000000000000000000000000000000000000000000000000000007bffffffffffffffffffffffffffffffffffffffffffffffffffffffff1916827bffffffffffffffffffffffffffffffffffffffffffffffffffffffff1916145b806116df57506116de82611d57565b5b9050919050565b6000806116f284611241565b9050600073ffffffffffffffffffffffffffffffffffffffff168373ffffffffffffffffffffffffffffffffffffffff161461173457611733818486611dc1565b5b600073ffffffffffffffffffffffffffffffffffffffff168173ffffffffffffffffffffffffffffffffffffffff16146117c55761177660008560008061127e565b6001600360008373ffffffffffffffffffffffffffffffffffffffff1673ffffffffffffffffffffffffffffffffffffffff168152602001908152602001600020600082825403925050819055505b600073ffffffffffffffffffffffffffffffffffffffff168573ffffffffffffffffffffffffffffffffffffffff1614611848576001600360008773ffffffffffffffffffffffffffffffffffffffff1673ffffffffffffffffffffffffffffffffffffffff168152602001908152602001600020600082825401925050819055505b846002600086815260200190815260200160002060006101000a81548173ffffffffffffffffffffffffffffffffffffffff021916908373ffffffffffffffffffffffffffffffffffffffff160217905550838573ffffffffffffffffffffffffffffffffffffffff168273ffffffffffffffffffffffffffffffffffffffff167fddf252ad1be2c89b69c2b068fc378daa952ba7f163c4a11628f55a4df523b3ef60405160405180910390a4809150509392505050565b600980549050600a600083815260200190815260200160002081905550600981908060018154018082558091505060019003906000526020600020016000909190919091505550565b6000611954836108ef565b90506000600860008481526020019081526020016000205490506000600760008673ffffffffffffffffffffffffffffffffffffffff1673ffffffffffffffffffffffffffffffffffffffff1681526020019081526020016000209050828214611a005760008160008581526020019081526020016000205490508082600085815260200190815260200160002081905550826008600083815260200190815260200160002081905550505b6008600085815260200190815260200160002060009055806000848152602001908152602001600020600090555050505050565b60006001600980549050611a489190612e60565b90506000600a6000848152602001908152602001600020549050600060098381548110611a7857611a776128d3565b5b906000526020600020015490508060098381548110611a9a57611a996128d3565b5b906000526020600020018190555081600a600083815260200190815260200160002081905550600a6000858152602001908152602001600020600090556009805480611ae957611ae8612e94565b5b6001900381819060005260206000200160009055905550505050565b60006001611b12846108ef565b611b1c9190612e60565b905081600760008573ffffffffffffffffffffffffffffffffffffffff1673ffffffffffffffffffffffffffffffffffffffff168152602001908152602001600020600083815260200190815260200160002081905550806008600084815260200190815260200160002081905550505050565b600073ffffffffffffffffffffffffffffffffffffffff168273ffffffffffffffffffffffffffffffffffffffff1603611c025760006040517f64a0ae92000000000000000000000000000000000000000000000000000000008152600401611bf991906122be565b60405180910390fd5b6000611c1083836000610ca1565b9050600073ffffffffffffffffffffffffffffffffffffffff168173ffffffffffffffffffffffffffffffffffffffff1614611c845760006040517f73c6ac6e000000000000000000000000000000000000000000000000000000008152600401611c7b91906122be565b60405180910390fd5b505050565b606060006001611c9884611e85565b01905060008167ffffffffffffffff811115611cb757611cb6612446565b5b6040519080825280601f01601f191660200182016040528015611ce95781602001600182028036833780820191505090505b509050600082602001820190505b600115611d4c578080600190039150507f3031323334353637383961626364656600000000000000000000000000000000600a86061a8153600a8581611d4057611d3f612ec3565b5b04945060008503611cf7575b819350505050919050565b60007f01ffc9a7000000000000000000000000000000000000000000000000000000007bffffffffffffffffffffffffffffffffffffffffffffffffffffffff1916827bffffffffffffffffffffffffffffffffffffffffffffffffffffffff1916149050919050565b611dcc838383611fd8565b611e8057600073ffffffffffffffffffffffffffffffffffffffff168373ffffffffffffffffffffffffffffffffffffffff1603611e4157806040517f7e273289000000000000000000000000000000000000000000000000000000008152600401611e389190612354565b60405180910390fd5b81816040517f177e802f000000000000000000000000000000000000000000000000000000008152600401611e779291906128aa565b60405180910390fd5b505050565b600080600090507a184f03e93ff9f4daa797ed6e38ed64bf6a1f0100000000000000008310611ee3577a184f03e93ff9f4daa797ed6e38ed64bf6a1f0100000000000000008381611ed957611ed8612ec3565b5b0492506040810190505b6d04ee2d6d415b85acef81000000008310611f20576d04ee2d6d415b85acef81000000008381611f1657611f15612ec3565b5b0492506020810190505b662386f26fc100008310611f4f57662386f26fc100008381611f4557611f44612ec3565b5b0492506010810190505b6305f5e1008310611f78576305f5e1008381611f6e57611f6d612ec3565b5b0492506008810190505b6127108310611f9d576127108381611f9357611f92612ec3565b5b0492506004810190505b60648310611fc05760648381611fb657611fb5612ec3565b5b0492506002810190505b600a8310611fcf576001810190505b80915050919050565b60008073ffffffffffffffffffffffffffffffffffffffff168373ffffffffffffffffffffffffffffffffffffffff161415801561209057508273ffffffffffffffffffffffffffffffffffffffff168473ffffffffffffffffffffffffffffffffffffffff16148061205157506120508484610ab4565b5b8061208f57508273ffffffffffffffffffffffffffffffffffffffff1661207783610c4a565b73ffffffffffffffffffffffffffffffffffffffff16145b5b90509392505050565b6000604051905090565b600080fd5b600080fd5b60007fffffffff0000000000000000000000000000000000000000000000000000000082169050919050565b6120e2816120ad565b81146120ed57600080fd5b50565b6000813590506120ff816120d9565b92915050565b60006020828403121561211b5761211a6120a3565b5b6000612129848285016120f0565b91505092915050565b60008115159050919050565b61214781612132565b82525050565b6000602082019050612162600083018461213e565b92915050565b600081519050919050565b600082825260208201905092915050565b60005b838110156121a2578082015181840152602081019050612187565b60008484015250505050565b6000601f19601f8301169050919050565b60006121ca82612168565b6121d48185612173565b93506121e4818560208601612184565b6121ed816121ae565b840191505092915050565b6000602082019050818103600083015261221281846121bf565b905092915050565b6000819050919050565b61222d8161221a565b811461223857600080fd5b50565b60008135905061224a81612224565b92915050565b600060208284031215612266576122656120a3565b5b60006122748482850161223b565b91505092915050565b600073ffffffffffffffffffffffffffffffffffffffff82169050919050565b60006122a88261227d565b9050919050565b6122b88161229d565b82525050565b60006020820190506122d360008301846122af565b92915050565b6122e28161229d565b81146122ed57600080fd5b50565b6000813590506122ff816122d9565b92915050565b6000806040838503121561231c5761231b6120a3565b5b600061232a858286016122f0565b925050602061233b8582860161223b565b9150509250929050565b61234e8161221a565b82525050565b60006020820190506123696000830184612345565b92915050565b600080600060608486031215612388576123876120a3565b5b6000612396868287016122f0565b93505060206123a7868287016122f0565b92505060406123b88682870161223b565b9150509250925092565b6000819050919050565b60006123e76123e26123dd8461227d565b6123c2565b61227d565b9050919050565b60006123f9826123cc565b9050919050565b600061240b826123ee565b9050919050565b61241b81612400565b82525050565b60006020820190506124366000830184612412565b92915050565b600080fd5b600080fd5b7f4e487b7100000000000000000000000000000000000000000000000000000000600052604160045260246000fd5b61247e826121ae565b810181811067ffffffffffffffff8211171561249d5761249c612446565b5b80604052505050565b60006124b0612099565b90506124bc8282612475565b919050565b600067ffffffffffffffff8211156124dc576124db612446565b5b6124e5826121ae565b9050602081019050919050565b82818337600083830152505050565b600061251461250f846124c1565b6124a6565b9050828152602081018484840111156125305761252f612441565b5b61253b8482856124f2565b509392505050565b600082601f8301126125585761255761243c565b5b8135612568848260208601612501565b91505092915050565b6000819050919050565b61258481612571565b811461258f57600080fd5b50565b6000813590506125a18161257b565b92915050565b6000806000606084860312156125c0576125bf6120a3565b5b60006125ce868287016122f0565b935050602084013567ffffffffffffffff8111156125ef576125ee6120a8565b5b6125fb86828701612543565b925050604061260c86828701612592565b9150509250925092565b60006020828403121561262c5761262b6120a3565b5b600061263a848285016122f0565b91505092915050565b61264c81612132565b811461265757600080fd5b50565b60008135905061266981612643565b92915050565b60008060408385031215612686576126856120a3565b5b6000612694858286016122f0565b92505060206126a58582860161265a565b9150509250929050565b600067ffffffffffffffff8211156126ca576126c9612446565b5b6126d3826121ae565b9050602081019050919050565b60006126f36126ee846126af565b6124a6565b90508281526020810184848401111561270f5761270e612441565b5b61271a8482856124f2565b509392505050565b600082601f8301126127375761273661243c565b5b81356127478482602086016126e0565b91505092915050565b6000806000806080858703121561276a576127696120a3565b5b6000612778878288016122f0565b9450506020612789878288016122f0565b935050604061279a8782880161223b565b925050606085013567ffffffffffffffff8111156127bb576127ba6120a8565b5b6127c787828801612722565b91505092959194509250565b600080604083850312156127ea576127e96120a3565b5b60006127f8858286016122f0565b9250506020612809858286016122f0565b9150509250929050565b7f4e487b7100000000000000000000000000000000000000000000000000000000600052602260045260246000fd5b6000600282049050600182168061285a57607f821691505b60208210810361286d5761286c612813565b5b50919050565b600060608201905061288860008301866122af565b6128956020830185612345565b6128a260408301846122af565b949350505050565b60006040820190506128bf60008301856122af565b6128cc6020830184612345565b9392505050565b7f4e487b7100000000000000000000000000000000000000000000000000000000600052603260045260246000fd5b61290b81612571565b82525050565b60006020820190506129266000830184612902565b92915050565b60008151905061293b816122d9565b92915050565b600060208284031215612957576129566120a3565b5b60006129658482850161292c565b91505092915050565b7f496e76616c696420746f6b656e206f72206f776e657200000000000000000000600082015250565b60006129a4601683612173565b91506129af8261296e565b602082019050919050565b600060208201905081810360008301526129d381612997565b9050919050565b7f4e487b7100000000000000000000000000000000000000000000000000000000600052601160045260246000fd5b6000612a148261221a565b9150612a1f8361221a565b9250828201905080821115612a3757612a366129da565b5b92915050565b7f456e636f756e7465727320617265206e6f6e2d7472616e7366657261626c6500600082015250565b6000612a73601f83612173565b9150612a7e82612a3d565b602082019050919050565b60006020820190508181036000830152612aa281612a66565b9050919050565b60008190508160005260206000209050919050565b60006020601f8301049050919050565b600082821b905092915050565b600060088302612b0b7fffffffffffffffffffffffffffffffffffffffffffffffffffffffffffffffff82612ace565b612b158683612ace565b95508019841693508086168417925050509392505050565b6000612b48612b43612b3e8461221a565b6123c2565b61221a565b9050919050565b6000819050919050565b612b6283612b2d565b612b76612b6e82612b4f565b848454612adb565b825550505050565b600090565b612b8b612b7e565b612b96818484612b59565b505050565b5b81811015612bba57612baf600082612b83565b600181019050612b9c565b5050565b601f821115612bff57612bd081612aa9565b612bd984612abe565b81016020851015612be8578190505b612bfc612bf485612abe565b830182612b9b565b50505b505050565b600082821c905092915050565b6000612c2260001984600802612c04565b1980831691505092915050565b6000612c3b8383612c11565b9150826002028217905092915050565b612c5482612168565b67ffffffffffffffff811115612c6d57612c6c612446565b5b612c778254612842565b612c82828285612bbe565b600060209050601f831160018114612cb55760008415612ca3578287015190505b612cad8582612c2f565b865550612d15565b601f198416612cc386612aa9565b60005b82811015612ceb57848901518255600182019150602085019450602081019050612cc6565b86831015612d085784890151612d04601f891682612c11565b8355505b6001600288020188555050505b505050505050565b600081519050919050565b600082825260208201905092915050565b6000612d4482612d1d565b612d4e8185612d28565b9350612d5e818560208601612184565b612d67816121ae565b840191505092915050565b6000608082019050612d8760008301876122af565b612d9460208301866122af565b612da16040830185612345565b8181036060830152612db38184612d39565b905095945050505050565b600081519050612dcd816120d9565b92915050565b600060208284031215612de957612de86120a3565b5b6000612df784828501612dbe565b91505092915050565b600081905092915050565b6000612e1682612168565b612e208185612e00565b9350612e30818560208601612184565b80840191505092915050565b6000612e488285612e0b565b9150612e548284612e0b565b91508190509392505050565b6000612e6b8261221a565b9150612e768361221a565b9250828203905081811115612e8e57612e8d6129da565b5b92915050565b7f4e487b7100000000000000000000000000000000000000000000000000000000600052603160045260246000fd5b7f4e487b7100000000000000000000000000000000000000000000000000000000600052601260045260246000fdfea264697066735822122014c60ec7f7869cb946e87783f1b68bd421e42855f2aff370693f94857c1b65c064736f6c634300081b0033a2646970667358221220ee46d5eeeb432a158013bc6ad77803fe0899a23ab94583573e9480d1c4457ebb64736f6c634300081b0033",
  "linkReferences": {},
  "deployedLinkReferences": {}
}