{
  "_format": "hh-sol-artifact-1",
  "contractName": "MyToken",
  "sourceName": "contracts/MyToken.sol",
  "abi": [
    {
      "inputs": [],
      "stateMutability": "nonpayable",
      "type": "constructor"
    },
    {
      "inputs": [],
      "name": "ERC721EnumerableForbiddenBatchMint",
      "type": "error"
    },
    {
      "inputs": [
        {
          "internalType": "address",
          "name": "sender",
          "type": "address"
        },
        {
          "internalType": "uint256",
          "name": "tokenId",
          "type": "uint256"
        },
        {
          "internalType": "address",
          "name": "owner",
          "type": "address"
        }
      ],
      "name": "ERC721IncorrectOwner",
      "type": "error"
    },
    {
      "inputs": [
        {
          "internalType": "address",
          "name": "operator",
          "type": "address"
        },
        {
          "internalType": "uint256",
          "name": "tokenId",
          "type": "uint256"
        }
      ],
      "name": "ERC721InsufficientApproval",
      "type": "error"
    },
    {
      "inputs": [
        {
          "internalType": "address",
          "name": "approver",
          "type": "address"
        }
      ],
      "name": "ERC721InvalidApprover",
      "type": "error"
    },
    {
      "inputs": [
        {
          "internalType": "address",
          "name": "operator",
          "type": "address"
        }
      ],
      "name": "ERC721InvalidOperator",
      "type": "error"
    },
    {
      "inputs": [
        {
          "internalType": "address",
          "name": "owner",
          "type": "address"
        }
      ],
      "name": "ERC721InvalidOwner",
      "type": "error"
    },
    {
      "inputs": [
        {
          "internalType": "address",
          "name": "receiver",
          "type": "address"
        }
      ],
      "name": "ERC721InvalidReceiver",
      "type": "error"
    },
    {
      "inputs": [
        {
          "internalType": "address",
          "name": "sender",
          "type": "address"
        }
      ],
      "name": "ERC721InvalidSender",
      "type": "error"
    },
    {
      "inputs": [
        {
          "internalType": "uint256",
          "name": "tokenId",
          "type": "uint256"
        }
      ],
      "name": "ERC721NonexistentToken",
      "type": "error"
    },
    {
      "inputs": [
        {
          "internalType": "address",
          "name": "owner",
          "type": "address"
        },
        {
          "internalType": "uint256",
          "name": "index",
          "type": "uint256"
        }
      ],
      "name": "ERC721OutOfBoundsIndex",
      "type": "error"
    },
    {
      "anonymous": false,
      "inputs": [
        {
          "indexed": true,
          "internalType": "address",
          "name": "owner",
          "type": "address"
        },
        {
          "indexed": true,
          "internalType": "address",
          "name": "approved",
          "type": "address"
        },
        {
          "indexed": true,
          "internalType": "uint256",
          "name": "tokenId",
          "type": "uint256"
        }
      ],
      "name": "Approval",
      "type": "event"
    },
    {
      "anonymous": false,
      "inputs": [
        {
          "indexed": true,
          "internalType": "address",
          "name": "owner",
          "type": "address"
        },
        {
          "indexed": true,
          "internalType": "address",
          "name": "operator",
          "type": "address"
        },
        {
          "indexed": false,
          "internalType": "bool",
          "name": "approved",
          "type": "bool"
        }
      ],
      "name": "ApprovalForAll",
      "type": "event"
    },
    {
      "anonymous": false,
      "inputs": [
        {
          "indexed": false,
          "internalType": "uint256",
          "name": "_fromTokenId",
          "type": "uint256"
        },
        {
          "indexed": false,
          "internalType": "uint256",
          "name": "_toTokenId",
          "type": "uint256"
        }
      ],
      "name": "BatchMetadataUpdate",
      "type": "event"
    },
    {
      "anonymous": false,
      "inputs": [
        {
          "indexed": false,
          "internalType": "uint256",
          "name": "_tokenId",
          "type": "uint256"
        }
      ],
      "name": "MetadataUpdate",
      "type": "event"
    },
    {
      "anonymous": false,
      "inputs": [
        {
          "indexed": true,
          "internalType": "address",
          "name": "from",
          "type": "address"
        },
        {
          "indexed": true,
          "internalType": "address",
          "name": "to",
          "type": "address"
        },
        {
          "indexed": true,
          "internalType": "uint256",
          "name": "tokenId",
          "type": "uint256"
        }
      ],
      "name": "Transfer",
      "type": "event"
    },
    {
      "inputs": [
        {
          "internalType": "address",
          "name": "to",
          "type": "address"
        },
        {
          "internalType": "uint256",
          "name": "tokenId",
          "type": "uint256"
        }
      ],
      "name": "approve",
      "outputs": [],
      "stateMutability": "nonpayable",
      "type": "function"
    },
    {
      "inputs": [
        {
          "internalType": "address",
          "name": "owner",
          "type": "address"
        }
      ],
      "name": "balanceOf",
      "outputs": [
        {
          "internalType": "uint256",
          "name": "",
          "type": "uint256"
        }
      ],
      "stateMutability": "view",
      "type": "function"
    },
    {
      "inputs": [
        {
          "internalType": "uint256",
          "name": "tokenId",
          "type": "uint256"
        }
      ],
      "name": "getApproved",
      "outputs": [
        {
          "internalType": "address",
          "name": "",
          "type": "address"
        }
      ],
      "stateMutability": "view",
      "type": "function"
    },
    {
      "inputs": [
        {
          "internalType": "address",
          "name": "owner",
          "type": "address"
        },
        {
          "internalType": "address",
          "name": "operator",
          "type": "address"
        }
      ],
      "name": "isApprovedForAll",
      "outputs": [
        {
          "internalType": "bool",
          "name": "",
          "type": "bool"
        }
      ],
      "stateMutability": "view",
      "type": "function"
    },
    {
      "inputs": [
        {
          "internalType": "address",
          "name": "recipient",
          "type": "address"
        },
        {
          "internalType": "string",
          "name": "tokenURI_",
          "type": "string"
        }
      ],
      "name": "mintMyToken",
      "outputs": [
        {
          "internalType": "uint256",
          "name": "",
          "type": "uint256"
        }
      ],
      "stateMutability": "nonpayable",
      "type": "function"
    },
    {
      "inputs": [],
      "name": "name",
      "outputs": [
        {
          "internalType": "string",
          "name": "",
          "type": "string"
        }
      ],
      "stateMutability": "view",
      "type": "function"
    },
    {
      "inputs": [
        {
          "internalType": "uint256",
          "name": "tokenId",
          "type": "uint256"
        }
      ],
      "name": "ownerOf",
      "outputs": [
        {
          "internalType": "address",
          "name": "",
          "type": "address"
        }
      ],
      "stateMutability": "view",
      "type": "function"
    },
    {
      "inputs": [
        {
          "internalType": "address",
          "name": "from",
          "type": "address"
        },
        {
          "internalType": "address",
          "name": "to",
          "type": "address"
        },
        {
          "internalType": "uint256",
          "name": "tokenId",
          "type": "uint256"
        }
      ],
      "name": "safeTransferFrom",
      "outputs": [],
      "stateMutability": "nonpayable",
      "type": "function"
    },
    {
      "inputs": [
        {
          "internalType": "address",
          "name": "from",
          "type": "address"
        },
        {
          "internalType": "address",
          "name": "to",
          "type": "address"
        },
        {
          "internalType": "uint256",
          "name": "tokenId",
          "type": "uint256"
        },
        {
          "internalType": "bytes",
          "name": "data",
          "type": "bytes"
        }
      ],
      "name": "safeTransferFrom",
      "outputs": [],
      "stateMutability": "nonpayable",
      "type": "function"
    },
    {
      "inputs": [
        {
          "internalType": "address",
          "name": "operator",
          "type": "address"
        },
        {
          "internalType": "bool",
          "name": "approved",
          "type": "bool"
        }
      ],
      "name": "setApprovalForAll",
      "outputs": [],
      "stateMutability": "nonpayable",
      "type": "function"
    },
    {
      "inputs": [
        {
          "internalType": "bytes4",
          "name": "interfaceId",
          "type": "bytes4"
        }
      ],
      "name": "supportsInterface",
      "outputs": [
        {
          "internalType": "bool",
          "name": "",
          "type": "bool"
        }
      ],
      "stateMutability": "view",
      "type": "function"
    },
    {
      "inputs": [],
      "name": "symbol",
      "outputs": [
        {
          "internalType": "string",
          "name": "",
          "type": "string"
        }
      ],
      "stateMutability": "view",
      "type": "function"
    },
    {
      "inputs": [
        {
          "internalType": "uint256",
          "name": "index",
          "type": "uint256"
        }
      ],
      "name": "tokenByIndex",
      "outputs": [
        {
          "internalType": "uint256",
          "name": "",
          "type": "uint256"
        }
      ],
      "stateMutability": "view",
      "type": "function"
    },
    {
      "inputs": [],
      "name": "tokenCounter",
      "outputs": [
        {
          "internalType": "uint256",
          "name": "",
          "type": "uint256"
        }
      ],
      "stateMutability": "view",
      "type": "function"
    },
    {
      "inputs": [
        {
          "internalType": "address",
          "name": "owner",
          "type": "address"
        },
        {
          "internalType": "uint256",
          "name": "index",
          "type": "uint256"
        }
      ],
      "name": "tokenOfOwnerByIndex",
      "outputs": [
        {
          "internalType": "uint256",
          "name": "",
          "type": "uint256"
        }
      ],
      "stateMutability": "view",
      "type": "function"
    },
    {
      "inputs": [
        {
          "internalType": "uint256",
          "name": "tokenId",
          "type": "uint256"
        }
      ],
      "name": "tokenURI",
      "outputs": [
        {
          "internalType": "string",
          "name": "",
          "type": "string"
        }
      ],
      "stateMutability": "view",
      "type": "function"
    },
    {
      "inputs": [],
      "name": "totalSupply",
      "outputs": [
        {
          "internalType": "uint256",
          "name": "",
          "type": "uint256"
        }
      ],
      "stateMutability": "view",
      "type": "function"
    },
    {
      "inputs": [
        {
          "internalType": "address",
          "name": "from",
          "type": "address"
        },
        {
          "internalType": "address",
          "name": "to",
          "type": "address"
        },
        {
          "internalType": "uint256",
          "name": "tokenId",
          "type": "uint256"
        }
      ],
      "name": "transferFrom",
      "outputs": [],
      "stateMutability": "nonpayable",
      "type": "function"
    }
  ],
  "bytecode": "0x608060405234801561001057600080fd5b506040518060400160405280600c81526020017f546f7563684d79546f6b656e00000000000000000000000000000000000000008152506040518060400160405280600381526020017f544d540000000000000000000000000000000000000000000000000000000000815250816000908161008c91906102fc565b50806001908161009c91906102fc565b5050506000600b819055506103ce565b600081519050919050565b7f4e487b7100000000000000000000000000000000000000000000000000000000600052604160045260246000fd5b7f4e487b7100000000000000000000000000000000000000000000000000000000600052602260045260246000fd5b6000600282049050600182168061012d57607f821691505b6020821081036101405761013f6100e6565b5b50919050565b60008190508160005260206000209050919050565b60006020601f8301049050919050565b600082821b905092915050565b6000600883026101a87fffffffffffffffffffffffffffffffffffffffffffffffffffffffffffffffff8261016b565b6101b2868361016b565b95508019841693508086168417925050509392505050565b6000819050919050565b6000819050919050565b60006101f96101f46101ef846101ca565b6101d4565b6101ca565b9050919050565b6000819050919050565b610213836101de565b61022761021f82610200565b848454610178565b825550505050565b600090565b61023c61022f565b61024781848461020a565b505050565b5b8181101561026b57610260600082610234565b60018101905061024d565b5050565b601f8211156102b05761028181610146565b61028a8461015b565b81016020851015610299578190505b6102ad6102a58561015b565b83018261024c565b50505b505050565b600082821c905092915050565b60006102d3600019846008026102b5565b1980831691505092915050565b60006102ec83836102c2565b9150826002028217905092915050565b610305826100ac565b67ffffffffffffffff81111561031e5761031d6100b7565b5b6103288254610115565b61033382828561026f565b600060209050601f8311600181146103665760008415610354578287015190505b61035e85826102e0565b8655506103c6565b601f19841661037486610146565b60005b8281101561039c57848901518255600182019150602085019450602081019050610377565b868310156103b957848901516103b5601f8916826102c2565b8355505b6001600288020188555050505b505050505050565b612c7e806103dd6000396000f3fe608060405234801561001057600080fd5b50600436106101165760003560e01c80634f6ccce7116100a2578063a22cb46511610071578063a22cb46514610319578063b88d4fde14610335578063c87b56dd14610351578063d082e38114610381578063e985e9c51461039f57610116565b80634f6ccce71461026b5780636352211e1461029b57806370a08231146102cb57806395d89b41146102fb57610116565b806318160ddd116100e957806318160ddd146101b557806323b872dd146101d35780632f745c59146101ef57806342842e0e1461021f5780634d4f41f21461023b57610116565b806301ffc9a71461011b57806306fdde031461014b578063081812fc14610169578063095ea7b314610199575b600080fd5b61013560048036038101906101309190611f80565b6103cf565b6040516101429190611fc8565b60405180910390f35b6101536103e1565b6040516101609190612073565b60405180910390f35b610183600480360381019061017e91906120cb565b610473565b6040516101909190612139565b60405180910390f35b6101b360048036038101906101ae9190612180565b61048f565b005b6101bd6104a5565b6040516101ca91906121cf565b60405180910390f35b6101ed60048036038101906101e891906121ea565b6104b2565b005b61020960048036038101906102049190612180565b6105b4565b60405161021691906121cf565b60405180910390f35b610239600480360381019061023491906121ea565b61065d565b005b61025560048036038101906102509190612372565b61067d565b60405161026291906121cf565b60405180910390f35b610285600480360381019061028091906120cb565b610708565b60405161029291906121cf565b60405180910390f35b6102b560048036038101906102b091906120cb565b61077e565b6040516102c29190612139565b60405180910390f35b6102e560048036038101906102e091906123ce565b610790565b6040516102f291906121cf565b60405180910390f35b61030361084a565b6040516103109190612073565b60405180910390f35b610333600480360381019061032e9190612427565b6108dc565b005b61034f600480360381019061034a9190612508565b6108f2565b005b61036b600480360381019061036691906120cb565b610917565b6040516103789190612073565b60405180910390f35b610389610929565b60405161039691906121cf565b60405180910390f35b6103b960048036038101906103b4919061258b565b61092f565b6040516103c69190611fc8565b60405180910390f35b60006103da826109c3565b9050919050565b6060600080546103f0906125fa565b80601f016020809104026020016040519081016040528092919081815260200182805461041c906125fa565b80156104695780601f1061043e57610100808354040283529160200191610469565b820191906000526020600020905b81548152906001019060200180831161044c57829003601f168201915b5050505050905090565b600061047e82610a3d565b5061048882610ac5565b9050919050565b6104a1828261049c610b02565b610b0a565b5050565b6000600980549050905090565b600073ffffffffffffffffffffffffffffffffffffffff168273ffffffffffffffffffffffffffffffffffffffff16036105245760006040517f64a0ae9200000000000000000000000000000000000000000000000000000000815260040161051b9190612139565b60405180910390fd5b60006105388383610533610b02565b610b1c565b90508373ffffffffffffffffffffffffffffffffffffffff168173ffffffffffffffffffffffffffffffffffffffff16146105ae578382826040517f64283d7b0000000000000000000000000000000000000000000000000000000081526004016105a59392919061262b565b60405180910390fd5b50505050565b60006105bf83610790565b82106106045782826040517fa57d13dc0000000000000000000000000000000000000000000000000000000081526004016105fb929190612662565b60405180910390fd5b600760008473ffffffffffffffffffffffffffffffffffffffff1673ffffffffffffffffffffffffffffffffffffffff168152602001908152602001600020600083815260200190815260200160002054905092915050565b610678838383604051806020016040528060008152506108f2565b505050565b60008061068984610790565b146106c9576040517f08c379a00000000000000000000000000000000000000000000000000000000081526004016106c0906126d7565b60405180910390fd5b6000600b5490506106da8482610bae565b6106e48184610bcc565b6001600b60008282546106f79190612726565b925050819055508091505092915050565b60006107126104a5565b8210610758576000826040517fa57d13dc00000000000000000000000000000000000000000000000000000000815260040161074f929190612662565b60405180910390fd5b6009828154811061076c5761076b61275a565b5b90600052602060002001549050919050565b600061078982610a3d565b9050919050565b60008073ffffffffffffffffffffffffffffffffffffffff168273ffffffffffffffffffffffffffffffffffffffff16036108035760006040517f89c62b640000000000000000000000000000000000000000000000000000000081526004016107fa9190612139565b60405180910390fd5b600360008373ffffffffffffffffffffffffffffffffffffffff1673ffffffffffffffffffffffffffffffffffffffff168152602001908152602001600020549050919050565b606060018054610859906125fa565b80601f0160208091040260200160405190810160405280929190818152602001828054610885906125fa565b80156108d25780601f106108a7576101008083540402835291602001916108d2565b820191906000526020600020905b8154815290600101906020018083116108b557829003601f168201915b5050505050905090565b6108ee6108e7610b02565b8383610c28565b5050565b6108fd8484846104b2565b610911610908610b02565b85858585610d97565b50505050565b606061092282610f48565b9050919050565b600b5481565b6000600560008473ffffffffffffffffffffffffffffffffffffffff1673ffffffffffffffffffffffffffffffffffffffff16815260200190815260200160002060008373ffffffffffffffffffffffffffffffffffffffff1673ffffffffffffffffffffffffffffffffffffffff16815260200190815260200160002060009054906101000a900460ff16905092915050565b60007f780e9d63000000000000000000000000000000000000000000000000000000007bffffffffffffffffffffffffffffffffffffffffffffffffffffffff1916827bffffffffffffffffffffffffffffffffffffffffffffffffffffffff19161480610a365750610a358261105b565b5b9050919050565b600080610a49836110bc565b9050600073ffffffffffffffffffffffffffffffffffffffff168173ffffffffffffffffffffffffffffffffffffffff1603610abc57826040517f7e273289000000000000000000000000000000000000000000000000000000008152600401610ab391906121cf565b60405180910390fd5b80915050919050565b60006004600083815260200190815260200160002060009054906101000a900473ffffffffffffffffffffffffffffffffffffffff169050919050565b600033905090565b610b1783838360016110f9565b505050565b600080610b28846110bc565b9050600073ffffffffffffffffffffffffffffffffffffffff168173ffffffffffffffffffffffffffffffffffffffff1614610b99576040517f08c379a0000000000000000000000000000000000000000000000000000000008152600401610b90906127d5565b60405180910390fd5b610ba48585856112be565b9150509392505050565b610bc88282604051806020016040528060008152506113db565b5050565b80600660008481526020019081526020016000209081610bec91906129a1565b507ff8e1a15aba9398e019f0b49df1a4fde98ee17ae345cb5f6b5e2c27f5033e8ce782604051610c1c91906121cf565b60405180910390a15050565b600073ffffffffffffffffffffffffffffffffffffffff168273ffffffffffffffffffffffffffffffffffffffff1603610c9957816040517f5b08ba18000000000000000000000000000000000000000000000000000000008152600401610c909190612139565b60405180910390fd5b80600560008573ffffffffffffffffffffffffffffffffffffffff1673ffffffffffffffffffffffffffffffffffffffff16815260200190815260200160002060008473ffffffffffffffffffffffffffffffffffffffff1673ffffffffffffffffffffffffffffffffffffffff16815260200190815260200160002060006101000a81548160ff0219169083151502179055508173ffffffffffffffffffffffffffffffffffffffff168373ffffffffffffffffffffffffffffffffffffffff167f17307eab39ab6107e8899845ad3d59bd9653f200f220920489ca2b5937696c3183604051610d8a9190611fc8565b60405180910390a3505050565b60008373ffffffffffffffffffffffffffffffffffffffff163b1115610f41578273ffffffffffffffffffffffffffffffffffffffff1663150b7a02868685856040518563ffffffff1660e01b8152600401610df69493929190612ac8565b6020604051808303816000875af1925050508015610e3257506040513d601f19601f82011682018060405250810190610e2f9190612b29565b60015b610eb6573d8060008114610e62576040519150601f19603f3d011682016040523d82523d6000602084013e610e67565b606091505b506000815103610eae57836040517f64a0ae92000000000000000000000000000000000000000000000000000000008152600401610ea59190612139565b60405180910390fd5b805181602001fd5b63150b7a0260e01b7bffffffffffffffffffffffffffffffffffffffffffffffffffffffff1916817bffffffffffffffffffffffffffffffffffffffffffffffffffffffff191614610f3f57836040517f64a0ae92000000000000000000000000000000000000000000000000000000008152600401610f369190612139565b60405180910390fd5b505b5050505050565b6060610f5382610a3d565b506000600660008481526020019081526020016000208054610f74906125fa565b80601f0160208091040260200160405190810160405280929190818152602001828054610fa0906125fa565b8015610fed5780601f10610fc257610100808354040283529160200191610fed565b820191906000526020600020905b815481529060010190602001808311610fd057829003601f168201915b505050505090506000610ffe6113ff565b90506000815103611013578192505050611056565b600082511115611048578082604051602001611030929190612b92565b60405160208183030381529060405292505050611056565b61105184611416565b925050505b919050565b6000634906490660e01b7bffffffffffffffffffffffffffffffffffffffffffffffffffffffff1916827bffffffffffffffffffffffffffffffffffffffffffffffffffffffff191614806110b557506110b48261147f565b5b9050919050565b60006002600083815260200190815260200160002060009054906101000a900473ffffffffffffffffffffffffffffffffffffffff169050919050565b80806111325750600073ffffffffffffffffffffffffffffffffffffffff168273ffffffffffffffffffffffffffffffffffffffff1614155b1561126657600061114284610a3d565b9050600073ffffffffffffffffffffffffffffffffffffffff168373ffffffffffffffffffffffffffffffffffffffff16141580156111ad57508273ffffffffffffffffffffffffffffffffffffffff168173ffffffffffffffffffffffffffffffffffffffff1614155b80156111c057506111be818461092f565b155b1561120257826040517fa9fbf51f0000000000000000000000000000000000000000000000000000000081526004016111f99190612139565b60405180910390fd5b811561126457838573ffffffffffffffffffffffffffffffffffffffff168273ffffffffffffffffffffffffffffffffffffffff167f8c5be1e5ebec7d5bd14f71427d1e84f3dd0314c0f7b2291e5b200ac8c7c3b92560405160405180910390a45b505b836004600085815260200190815260200160002060006101000a81548173ffffffffffffffffffffffffffffffffffffffff021916908373ffffffffffffffffffffffffffffffffffffffff16021790555050505050565b6000806112cc858585611561565b9050600073ffffffffffffffffffffffffffffffffffffffff168173ffffffffffffffffffffffffffffffffffffffff16036113105761130b8461177b565b61134f565b8473ffffffffffffffffffffffffffffffffffffffff168173ffffffffffffffffffffffffffffffffffffffff161461134e5761134d81856117c4565b5b5b600073ffffffffffffffffffffffffffffffffffffffff168573ffffffffffffffffffffffffffffffffffffffff16036113915761138c846118af565b6113d0565b8473ffffffffffffffffffffffffffffffffffffffff168173ffffffffffffffffffffffffffffffffffffffff16146113cf576113ce8585611980565b5b5b809150509392505050565b6113e58383611a0b565b6113fa6113f0610b02565b6000858585610d97565b505050565b606060405180602001604052806000815250905090565b606061142182610a3d565b50600061142c6113ff565b9050600081511161144c5760405180602001604052806000815250611477565b8061145684611b04565b604051602001611467929190612b92565b6040516020818303038152906040525b915050919050565b60007f80ac58cd000000000000000000000000000000000000000000000000000000007bffffffffffffffffffffffffffffffffffffffffffffffffffffffff1916827bffffffffffffffffffffffffffffffffffffffffffffffffffffffff1916148061154a57507f5b5e139f000000000000000000000000000000000000000000000000000000007bffffffffffffffffffffffffffffffffffffffffffffffffffffffff1916827bffffffffffffffffffffffffffffffffffffffffffffffffffffffff1916145b8061155a575061155982611bd2565b5b9050919050565b60008061156d846110bc565b9050600073ffffffffffffffffffffffffffffffffffffffff168373ffffffffffffffffffffffffffffffffffffffff16146115af576115ae818486611c3c565b5b600073ffffffffffffffffffffffffffffffffffffffff168173ffffffffffffffffffffffffffffffffffffffff1614611640576115f16000856000806110f9565b6001600360008373ffffffffffffffffffffffffffffffffffffffff1673ffffffffffffffffffffffffffffffffffffffff168152602001908152602001600020600082825403925050819055505b600073ffffffffffffffffffffffffffffffffffffffff168573ffffffffffffffffffffffffffffffffffffffff16146116c3576001600360008773ffffffffffffffffffffffffffffffffffffffff1673ffffffffffffffffffffffffffffffffffffffff168152602001908152602001600020600082825401925050819055505b846002600086815260200190815260200160002060006101000a81548173ffffffffffffffffffffffffffffffffffffffff021916908373ffffffffffffffffffffffffffffffffffffffff160217905550838573ffffffffffffffffffffffffffffffffffffffff168273ffffffffffffffffffffffffffffffffffffffff167fddf252ad1be2c89b69c2b068fc378daa952ba7f163c4a11628f55a4df523b3ef60405160405180910390a4809150509392505050565b600980549050600a600083815260200190815260200160002081905550600981908060018154018082558091505060019003906000526020600020016000909190919091505550565b60006117cf83610790565b90506000600860008481526020019081526020016000205490506000600760008673ffffffffffffffffffffffffffffffffffffffff1673ffffffffffffffffffffffffffffffffffffffff168152602001908152602001600020905082821461187b5760008160008581526020019081526020016000205490508082600085815260200190815260200160002081905550826008600083815260200190815260200160002081905550505b6008600085815260200190815260200160002060009055806000848152602001908152602001600020600090555050505050565b600060016009805490506118c39190612bb6565b90506000600a60008481526020019081526020016000205490506000600983815481106118f3576118f261275a565b5b9060005260206000200154905080600983815481106119155761191461275a565b5b906000526020600020018190555081600a600083815260200190815260200160002081905550600a600085815260200190815260200160002060009055600980548061196457611963612bea565b5b6001900381819060005260206000200160009055905550505050565b6000600161198d84610790565b6119979190612bb6565b905081600760008573ffffffffffffffffffffffffffffffffffffffff1673ffffffffffffffffffffffffffffffffffffffff168152602001908152602001600020600083815260200190815260200160002081905550806008600084815260200190815260200160002081905550505050565b600073ffffffffffffffffffffffffffffffffffffffff168273ffffffffffffffffffffffffffffffffffffffff1603611a7d5760006040517f64a0ae92000000000000000000000000000000000000000000000000000000008152600401611a749190612139565b60405180910390fd5b6000611a8b83836000610b1c565b9050600073ffffffffffffffffffffffffffffffffffffffff168173ffffffffffffffffffffffffffffffffffffffff1614611aff5760006040517f73c6ac6e000000000000000000000000000000000000000000000000000000008152600401611af69190612139565b60405180910390fd5b505050565b606060006001611b1384611d00565b01905060008167ffffffffffffffff811115611b3257611b31612247565b5b6040519080825280601f01601f191660200182016040528015611b645781602001600182028036833780820191505090505b509050600082602001820190505b600115611bc7578080600190039150507f3031323334353637383961626364656600000000000000000000000000000000600a86061a8153600a8581611bbb57611bba612c19565b5b04945060008503611b72575b819350505050919050565b60007f01ffc9a7000000000000000000000000000000000000000000000000000000007bffffffffffffffffffffffffffffffffffffffffffffffffffffffff1916827bffffffffffffffffffffffffffffffffffffffffffffffffffffffff1916149050919050565b611c47838383611e53565b611cfb57600073ffffffffffffffffffffffffffffffffffffffff168373ffffffffffffffffffffffffffffffffffffffff1603611cbc57806040517f7e273289000000000000000000000000000000000000000000000000000000008152600401611cb391906121cf565b60405180910390fd5b81816040517f177e802f000000000000000000000000000000000000000000000000000000008152600401611cf2929190612662565b60405180910390fd5b505050565b600080600090507a184f03e93ff9f4daa797ed6e38ed64bf6a1f0100000000000000008310611d5e577a184f03e93ff9f4daa797ed6e38ed64bf6a1f0100000000000000008381611d5457611d53612c19565b5b0492506040810190505b6d04ee2d6d415b85acef81000000008310611d9b576d04ee2d6d415b85acef81000000008381611d9157611d90612c19565b5b0492506020810190505b662386f26fc100008310611dca57662386f26fc100008381611dc057611dbf612c19565b5b0492506010810190505b6305f5e1008310611df3576305f5e1008381611de957611de8612c19565b5b0492506008810190505b6127108310611e18576127108381611e0e57611e0d612c19565b5b0492506004810190505b60648310611e3b5760648381611e3157611e30612c19565b5b0492506002810190505b600a8310611e4a576001810190505b80915050919050565b60008073ffffffffffffffffffffffffffffffffffffffff168373ffffffffffffffffffffffffffffffffffffffff1614158015611f0b57508273ffffffffffffffffffffffffffffffffffffffff168473ffffffffffffffffffffffffffffffffffffffff161480611ecc5750611ecb848461092f565b5b80611f0a57508273ffffffffffffffffffffffffffffffffffffffff16611ef283610ac5565b73ffffffffffffffffffffffffffffffffffffffff16145b5b90509392505050565b6000604051905090565b600080fd5b600080fd5b60007fffffffff0000000000000000000000000000000000000000000000000000000082169050919050565b611f5d81611f28565b8114611f6857600080fd5b50565b600081359050611f7a81611f54565b92915050565b600060208284031215611f9657611f95611f1e565b5b6000611fa484828501611f6b565b91505092915050565b60008115159050919050565b611fc281611fad565b82525050565b6000602082019050611fdd6000830184611fb9565b92915050565b600081519050919050565b600082825260208201905092915050565b60005b8381101561201d578082015181840152602081019050612002565b60008484015250505050565b6000601f19601f8301169050919050565b600061204582611fe3565b61204f8185611fee565b935061205f818560208601611fff565b61206881612029565b840191505092915050565b6000602082019050818103600083015261208d818461203a565b905092915050565b6000819050919050565b6120a881612095565b81146120b357600080fd5b50565b6000813590506120c58161209f565b92915050565b6000602082840312156120e1576120e0611f1e565b5b60006120ef848285016120b6565b91505092915050565b600073ffffffffffffffffffffffffffffffffffffffff82169050919050565b6000612123826120f8565b9050919050565b61213381612118565b82525050565b600060208201905061214e600083018461212a565b92915050565b61215d81612118565b811461216857600080fd5b50565b60008135905061217a81612154565b92915050565b6000806040838503121561219757612196611f1e565b5b60006121a58582860161216b565b92505060206121b6858286016120b6565b9150509250929050565b6121c981612095565b82525050565b60006020820190506121e460008301846121c0565b92915050565b60008060006060848603121561220357612202611f1e565b5b60006122118682870161216b565b93505060206122228682870161216b565b9250506040612233868287016120b6565b9150509250925092565b600080fd5b600080fd5b7f4e487b7100000000000000000000000000000000000000000000000000000000600052604160045260246000fd5b61227f82612029565b810181811067ffffffffffffffff8211171561229e5761229d612247565b5b80604052505050565b60006122b1611f14565b90506122bd8282612276565b919050565b600067ffffffffffffffff8211156122dd576122dc612247565b5b6122e682612029565b9050602081019050919050565b82818337600083830152505050565b6000612315612310846122c2565b6122a7565b90508281526020810184848401111561233157612330612242565b5b61233c8482856122f3565b509392505050565b600082601f8301126123595761235861223d565b5b8135612369848260208601612302565b91505092915050565b6000806040838503121561238957612388611f1e565b5b60006123978582860161216b565b925050602083013567ffffffffffffffff8111156123b8576123b7611f23565b5b6123c485828601612344565b9150509250929050565b6000602082840312156123e4576123e3611f1e565b5b60006123f28482850161216b565b91505092915050565b61240481611fad565b811461240f57600080fd5b50565b600081359050612421816123fb565b92915050565b6000806040838503121561243e5761243d611f1e565b5b600061244c8582860161216b565b925050602061245d85828601612412565b9150509250929050565b600067ffffffffffffffff82111561248257612481612247565b5b61248b82612029565b9050602081019050919050565b60006124ab6124a684612467565b6122a7565b9050828152602081018484840111156124c7576124c6612242565b5b6124d28482856122f3565b509392505050565b600082601f8301126124ef576124ee61223d565b5b81356124ff848260208601612498565b91505092915050565b6000806000806080858703121561252257612521611f1e565b5b60006125308782880161216b565b94505060206125418782880161216b565b9350506040612552878288016120b6565b925050606085013567ffffffffffffffff81111561257357612572611f23565b5b61257f878288016124da565b91505092959194509250565b600080604083850312156125a2576125a1611f1e565b5b60006125b08582860161216b565b92505060206125c18582860161216b565b9150509250929050565b7f4e487b7100000000000000000000000000000000000000000000000000000000600052602260045260246000fd5b6000600282049050600182168061261257607f821691505b602082108103612625576126246125cb565b5b50919050565b6000606082019050612640600083018661212a565b61264d60208301856121c0565b61265a604083018461212a565b949350505050565b6000604082019050612677600083018561212a565b61268460208301846121c0565b9392505050565b7f526563697069656e7420616c7265616479206861732061204d79546f6b656e00600082015250565b60006126c1601f83611fee565b91506126cc8261268b565b602082019050919050565b600060208201905081810360008301526126f0816126b4565b9050919050565b7f4e487b7100000000000000000000000000000000000000000000000000000000600052601160045260246000fd5b600061273182612095565b915061273c83612095565b9250828201905080821115612754576127536126f7565b5b92915050565b7f4e487b7100000000000000000000000000000000000000000000000000000000600052603260045260246000fd5b7f4d79546f6b656e7320617265206e6f6e2d7472616e7366657261626c65000000600082015250565b60006127bf601d83611fee565b91506127ca82612789565b602082019050919050565b600060208201905081810360008301526127ee816127b2565b9050919050565b60008190508160005260206000209050919050565b60006020601f8301049050919050565b600082821b905092915050565b6000600883026128577fffffffffffffffffffffffffffffffffffffffffffffffffffffffffffffffff8261281a565b612861868361281a565b95508019841693508086168417925050509392505050565b6000819050919050565b600061289e61289961289484612095565b612879565b612095565b9050919050565b6000819050919050565b6128b883612883565b6128cc6128c4826128a5565b848454612827565b825550505050565b600090565b6128e16128d4565b6128ec8184846128af565b505050565b5b81811015612910576129056000826128d9565b6001810190506128f2565b5050565b601f82111561295557612926816127f5565b61292f8461280a565b8101602085101561293e578190505b61295261294a8561280a565b8301826128f1565b50505b505050565b600082821c905092915050565b60006129786000198460080261295a565b1980831691505092915050565b60006129918383612967565b9150826002028217905092915050565b6129aa82611fe3565b67ffffffffffffffff8111156129c3576129c2612247565b5b6129cd82546125fa565b6129d8828285612914565b600060209050601f831160018114612a0b57600084156129f9578287015190505b612a038582612985565b865550612a6b565b601f198416612a19866127f5565b60005b82811015612a4157848901518255600182019150602085019450602081019050612a1c565b86831015612a5e5784890151612a5a601f891682612967565b8355505b6001600288020188555050505b505050505050565b600081519050919050565b600082825260208201905092915050565b6000612a9a82612a73565b612aa48185612a7e565b9350612ab4818560208601611fff565b612abd81612029565b840191505092915050565b6000608082019050612add600083018761212a565b612aea602083018661212a565b612af760408301856121c0565b8181036060830152612b098184612a8f565b905095945050505050565b600081519050612b2381611f54565b92915050565b600060208284031215612b3f57612b3e611f1e565b5b6000612b4d84828501612b14565b91505092915050565b600081905092915050565b6000612b6c82611fe3565b612b768185612b56565b9350612b86818560208601611fff565b80840191505092915050565b6000612b9e8285612b61565b9150612baa8284612b61565b91508190509392505050565b6000612bc182612095565b9150612bcc83612095565b9250828203905081811115612be457612be36126f7565b5b92915050565b7f4e487b7100000000000000000000000000000000000000000000000000000000600052603160045260246000fd5b7f4e487b7100000000000000000000000000000000000000000000000000000000600052601260045260246000fdfea26469706673582212208c4327bc36b7c7712f01a313b862abb3f777dc233028fce881641e5e57c9cd1464736f6c634300081b0033",
  "linkReferences": {},
  "deployedLinkReferences": {}
}