{
  "_format": "hh-sol-artifact-1",
  "contractName": "SecretTokenManager",
  "sourceName": "contracts/SecretTokenManager.sol",
  "abi": [
    {
      "inputs": [
        {
          "internalType": "bytes32",
          "name": "doubleHash",
          "type": "bytes32"
        }
      ],
      "name": "invalidateToken",
      "outputs": [],
      "stateMutability": "nonpayable",
      "type": "function"
    },
    {
      "inputs": [
        {
          "internalType": "bytes32",
          "name": "doubleHash",
          "type": "bytes32"
        }
      ],
      "name": "registerToken",
      "outputs": [],
      "stateMutability": "nonpayable",
      "type": "function"
    },
    {
      "inputs": [
        {
          "internalType": "bytes32",
          "name": "",
          "type": "bytes32"
        }
      ],
      "name": "tokenOwners",
      "outputs": [
        {
          "internalType": "address",
          "name": "",
          "type": "address"
        }
      ],
      "stateMutability": "view",
      "type": "function"
    },
    {
      "inputs": [
        {
          "internalType": "bytes32",
          "name": "tokenHash",
          "type": "bytes32"
        }
      ],
      "name": "verifyToken",
      "outputs": [
        {
          "internalType": "address",
          "name": "",
          "type": "address"
        }
      ],
      "stateMutability": "view",
      "type": "function"
    }
  ],
  "bytecode": "0x6080604052348015600f57600080fd5b5061058c8061001f6000396000f3fe608060405234801561001057600080fd5b506004361061004c5760003560e01c806318a1a9d0146100515780636f0548a41461006d578063b7d7998b1461009d578063be8dda7a146100b9575b600080fd5b61006b600480360381019061006691906103a8565b6100e9565b005b610087600480360381019061008291906103a8565b6101de565b6040516100949190610416565b60405180910390f35b6100b760048036038101906100b291906103a8565b610211565b005b6100d360048036038101906100ce91906103a8565b610306565b6040516100e09190610416565b60405180910390f35b600073ffffffffffffffffffffffffffffffffffffffff1660008083815260200190815260200160002060009054906101000a900473ffffffffffffffffffffffffffffffffffffffff1673ffffffffffffffffffffffffffffffffffffffff161461018a576040517f08c379a00000000000000000000000000000000000000000000000000000000081526004016101819061048e565b60405180910390fd5b3360008083815260200190815260200160002060006101000a81548173ffffffffffffffffffffffffffffffffffffffff021916908373ffffffffffffffffffffffffffffffffffffffff16021790555050565b60006020528060005260406000206000915054906101000a900473ffffffffffffffffffffffffffffffffffffffff1681565b3373ffffffffffffffffffffffffffffffffffffffff1660008083815260200190815260200160002060009054906101000a900473ffffffffffffffffffffffffffffffffffffffff1673ffffffffffffffffffffffffffffffffffffffff16146102b1576040517f08c379a00000000000000000000000000000000000000000000000000000000081526004016102a8906104fa565b60405180910390fd5b600080600083815260200190815260200160002060006101000a81548173ffffffffffffffffffffffffffffffffffffffff021916908373ffffffffffffffffffffffffffffffffffffffff16021790555050565b6000808260405160200161031a919061053b565b60405160208183030381529060405280519060200120905060008082815260200190815260200160002060009054906101000a900473ffffffffffffffffffffffffffffffffffffffff16915050919050565b600080fd5b6000819050919050565b61038581610372565b811461039057600080fd5b50565b6000813590506103a28161037c565b92915050565b6000602082840312156103be576103bd61036d565b5b60006103cc84828501610393565b91505092915050565b600073ffffffffffffffffffffffffffffffffffffffff82169050919050565b6000610400826103d5565b9050919050565b610410816103f5565b82525050565b600060208201905061042b6000830184610407565b92915050565b600082825260208201905092915050565b7f546f6b656e20616c726561647920726567697374657265640000000000000000600082015250565b6000610478601883610431565b915061048382610442565b602082019050919050565b600060208201905081810360008301526104a78161046b565b9050919050565b7f4e6f7420746865206f776e657200000000000000000000000000000000000000600082015250565b60006104e4600d83610431565b91506104ef826104ae565b602082019050919050565b60006020820190508181036000830152610513816104d7565b9050919050565b6000819050919050565b61053561053082610372565b61051a565b82525050565b60006105478284610524565b6020820191508190509291505056fea264697066735822122078db15dc9c1e302e258abe20fa97a477e45b247dcd1e30e70865f5ff6be8e05864736f6c634300081b0033",
  "linkReferences": {},
  "deployedLinkReferences": {}
}